:020000040800F2
:1000000000000220C5360008813200088332000853
:10001000853200088732000889320008000000009D
:100020000000000000000000000000008B3200080B
:100030008D320008000000008F3200089132000865
:100040001537000815370008153700081537000860
:100050001537000815370008153700081537000850
:100060001537000815370008153700081537000840
:100070001537000815370008153700081537000830
:100080001537000815370008153700081537000820
:100090001537000815370008153700081537000810
:1000A0001537000815370008153700081537000800
:1000B00015370008153700081537000815370008F0
:1000C00015370008153700081537000815370008E0
:1000D00015370008153700081537000815370008D0
:1000E00015370008153700081537000815370008C0
:1000F00015370008153700081537000815370008B0
:10010000153700081537000815370008153700089F
:10011000153700081537000815370008153700088F
:10012000153700081537000815370008153700087F
:10013000153700081537000815370008153700086F
:1001400015370008153700081537000899320008E0
:10015000153700081537000815370008153700084F
:10016000153700081537000815370008153700083F
:100170001537000815370008153700080000000083
:080180001537000815370008CF
:1001880010B5054C237833B9044B13B10448AFF3C9
:1001980000800123237010BD6401002000000000CE
:1001A8007037000808B5034B1BB103490348AFF388
:1001B800008008BD000000006801002070370008BA
:1001C80053B94AB9002908BF00281CBF4FF0FF31B6
:1001D8004FF0FF3000F072B9ADF1080C6DE904CEB4
:1001E80000F006F8DDF804E0DDE9022304B070470A
:1001F8002DE9F047089E04468846002B4BD18A42D9
:10020800154667D9B2FA82F24AB1C2F1200701FA5B
:1002180002F320FA07F7954047EA030894404FEAAB
:10022800154E230CB8FBFEF71FFA85FC0EFB17884A
:1002380043EA084307FB0CF1994209D9EB1807F187
:10024800FF3080F01B81994240F21881023F2B4415
:100258005B1AA4B2B3FBFEF00EFB103344EA03446E
:1002680000FB0CFCA44509D92C1900F1FF3380F0E0
:100278000781A44540F2048102382C4440EA074033
:10028800A4EB0C0400271EB1D4400023C6E90043A8
:100298003946BDE8F0878B4209D9002E00F0EB8083
:1002A8000027C6E9000138463946BDE8F087B3FAA9
:1002B80083F7002F47D18B4202D3824200F2FA80A3
:1002C800841A61EB030301209846002EE0D0C6E9AA
:1002D8000048DDE702B9FFDEB2FA82F2002A40F0F8
:1002E8008F80491B4FEA154E1FFA85F80127B1FB8D
:1002F800FEFC230C0EFB1C1143EA014308FB0CF126
:10030800994207D9EB180CF1FF3002D2994200F25A
:10031800CD808446591AA3B2B1FBFEF00EFB10142F
:1003280043EA044408FB00F8A04507D92C1900F15A
:10033800FF3302D2A04500F2B6801846A4EB0804A9
:1003480040EA0C409FE7C7F1200CBB4022FA0CFEA4
:100358004EEA030E01FA07F420FA0CF521FA0CF321
:100368004FEA1E482543B3FBF8F92C0C08FB193358
:100378001FFA8EFA44EA034309FB0AF49C4202FA84
:1003880007F200FA07F10BD91EEB030309F1FF305E
:1003980080F087809C4240F28480A9F1020973446E
:1003A8001B1BADB2B3FBF8F008FB103345EA03445E
:1003B80000FB0AFAA24508D91EEB040400F1FF333A
:1003C8006BD2A24569D90238744440EA0940A0FBBF
:1003D8000289A4EB0A044C45C2464B4654D351D07B
:1003E800002E69D0B1EB0A0564EB030404FA0CFC97
:1003F800FD40FC404CEA0505C6E90054002747E7E4
:10040800C2F1200320FA03F7954001FA02F021FA1D
:1004180003F34FEA154E3843010CB3FBFEF71FFAFE
:1004280085F80EFB173341EA034107FB08F38B42BB
:1004380004FA02F407D9691807F1FF3C2FD28B425E
:100448002DD9023F2944CB1A81B2B3FBFEF00EFB33
:10045800103341EA034100FB08F38B4207D96918BE
:1004680000F1FF3C17D28B4215D902382944C91A2A
:1004780040EA07473BE73746304609E70746E7E6DD
:100488001846FBE64145ABD2B8EB020A69EB0E020F
:1004980001381346A4E76046E9E7184695E767463A
:1004A800D1E781467CE702382C4447E7ACF1020CDF
:1004B8002B442FE7384608E73746E9E6704700BF80
:1004C80010B504460E4B18784FF47A73B3FBF0F36B
:1004D8000C4A1068B0FBF3F000F0AAF868B90F2CCA
:1004E80001D901200AE0002221464FF0FF3000F038
:1004F8005DF8034B5C60002000E0012010BD00BFE8
:10050800000000201001002008B50B4B1A6842F4C7
:1005180000721A601A6842F480621A601A6842F41B
:1005280080721A60032000F02FF80020FFF7C8FF40
:1005380002F082FE002008BD003C0240034A116818
:10054800034B1B780B441360704700BF98010020D1
:1005580000000020014B1868704700BF9801002078
:1005680038B50446FFF7F6FF0546B4F1FF3F02D061
:10057800044B1B781C44FFF7EDFF401BA042FAD345
:1005880038BD00BF00000020074AD36823F4E063A9
:100598001B041B0C000200F4E060184340F0BF602D
:1005A80040F40030D060704700ED00E030B4174BE5
:1005B800DB68C3F30223C3F10704042C28BF042417
:1005C8001D1D062D18D9033B4FF0FF3505FA04F41D
:1005D80021EA0401994005FA03F322EA03031943C7
:1005E80000280BDB0901C9B200F1604000F5614049
:1005F80080F8001330BC70470023E5E700F00F00D7
:100608000901C9B2024B1954F4E700BF00ED00E03C
:1006180014ED00E0002807DB00F01F024009012369
:100628009340024A42F82030704700BF00E100E0E2
:100638000138B0F1807F0AD2064B5860064AF02193
:1006480082F823100020986007221A607047012062
:10065800704700BF10E000E000ED00E000230F2B22
:1006680000F2DC80F0B482B05DE086685F000324AD
:10067800BC4026EA0406CC68BC4034438460466823
:1006880026EA02064C68C4F300129A4032434260DC
:1006980056E0DC08083450F8247003F0070296008E
:1006A8000F22B24027EA02070A69B2403A4340F8EB
:1006B800242059E0072200E00022B2403A430234E5
:1006C800574E46F82420574A1468EA4302EA0406BB
:1006D8004F6817F4803F01D045EA0406514C266064
:1006E800646802EA04064F6817F4003F01D045EA3F
:1006F80004064C4C6660A46802EA04064F6817F4C6
:10070800801F01D045EA0406464CA660E4682240F2
:100718004E6816F4001F01D045EA0402414CE2601D
:1007280001330F2B77D801229A400C6804EA02059E
:10073800AA42F5D14C6804F00304013C012C94D979
:100748004A6802F00302032A09D0C4685E00032243
:10075800B24024EA02048A68B2402243C2604A686E
:1007680002F00302022A94D004685E000322B24019
:1007780024EA02044A6802F00302B24022430260FB
:100788004A6812F4403FCBD000220192264A546CAA
:1007980044F480445464526C02F480420192019AF9
:1007A8009C08A61C1E4A52F8267003F00302960005
:1007B8000F22B24027EA02071C4A90423FF47CAF5E
:1007C80002F5806290421AD002F58062904218D0F9
:1007D80002F58062904216D002F58062904214D0F1
:1007E80002F58062904212D002F58062904210D0E9
:1007F80002F5806290423FF45DAF08225DE7012276
:100808005BE7022259E7032257E7042255E705224E
:1008180053E7062251E702B0F0BC7047704700BFAB
:1008280000380140003C014000380240000002400E
:100838002DE9F04782B00768CA00521A93000344B2
:100848005A6D1B6D9A4257D8B8469B1AC1EBC10422
:10085800A2000244526C9A4200D31A460C4606463D
:1008680002F1030A4FEA9A0A16E009F1030A4FEA6D
:100878009A0AE3001B1B9D003544A96C337C009346
:100888001FFA89F3E2B2384601F0D0FBAB6C4B4457
:10089800AB646B6D4B446B6508EB441303F5106355
:1008A8009B699BB2534513D3E3001B1B9A00324448
:1008B800516D136D99420BD253B15B1AC4EBC4014D
:1008C8008A003244D2F844909945CED39946CCE771
:1008D800E3001B1B98000644326D736D9A420FD8D3
:1008E80004F00F040121A140D7F8344824EA010498
:1008F800C7F83448002000E0012002B0BDE8F087C6
:100908000020FAE7F0B58BB0002800F08A80044692
:10091800056890F8BD3323B3032384F8BD33EB6B2C
:1009280013F4807F01D100232361206801F022F9AC
:10093800254655F8107B6E460FCD0FC60FCD0FC656
:1009480095E8030086E80300231D0ECB384601F026
:100958004FF858B1022384F8BD33012528460BB05F
:10096800F0BD80F8BC3302F0C5FCD5E70021206853
:1009780001F061FD002315E0D900C81A8200224465
:10098800012082F83D0082F83C30A2F84230002075
:1009980082F83F0050649064CA1A910021440865A7
:1009A8000133DBB26568AB42E6D3002315E0D8001B
:1009B800C11A8A002244002182F8FD1182F8FC3114
:1009C80082F8FF11C2F80412C2F80812C21A900085
:1009D8002044C0F810120133DBB29D42E7D8254607
:1009E80055F8107B6E460FCD0FC60FCD0FC695E894
:1009F800030086E80300231D0ECB384601F0F6F805
:100A0800054620B1022384F8BD330125A6E700235B
:100A180084F83830012384F8BD33206801F0C8FC1D
:100A28009CE701259AE7026890F8BC33012B19D09E
:100A380010B5012380F8BC33836A012B0AD0044621
:100A4800006801F091F8206801F0A4FC002084F807
:100A5800BC0310BD8369012BF1D0936B43F4803341
:100A68009363ECE70220704770B504460D460068B2
:100A7800066C00EB411303F530639A68216901297C
:100A880011D037498E4254D03DB9C5EBC502930009
:100A98002344D3F81032002B5CD0E9B2204602F090
:100AA80073FC002070BD12F0080F09D02D498E424A
:100AB800F7D912F4004FF4D04FF400429A60F0E7EF
:100AC80012F0200F28D112F0280FEAD125498E42C2
:100AD80002D912F4004F22D1E900491B8A002244AE
:100AE800D2F804121B69C3F31203C91AC2F814120C
:100AF800D2F80412D2F808320B44C2F8083235B9D9
:100B0800C5EBC50293002344D3F810325BB1E9B2B8
:100B1800204602F039FCC4E720229A60C1E74FF46E
:100B280000429A60BDE704F57172012101F0C4FC2E
:100B3800EDE712F4004F09D112F0200F01D0202266
:100B48009A60E9B2204602F01FFCAAE74FF400427F
:100B58009A60A6E704F57172002101F0ADFC9CE7EC
:100B68000A31544F0A30544F38B5044603681D6C97
:100B780003EB4111D1F8082B0E4B9D4207D901F523
:100B8800306112F4004F02D04FF400438B602046CE
:100B980002F0F2FB074B9D4202D92369012B01D0D9
:100BA800002038BD04F571720121206801F084FC31
:100BB800F6E700BF0A30544F2DE9F84F04460568A0
:100BC800284601F034FC08B1BDE8F88F2F460646E8
:100BD800206801F0FBFB0028F6D0206801F0F6FB46
:100BE80010F0020F04D02268536903F00203536126
:100BF800206801F0EBFB10F0100F14D02268936905
:100C080023F010039361D5F8208008F00F09C8F38A
:100C18004343022B68D0062B00F088802268936932
:100C280043F010039361206801F0D0FB10F4002F0B
:100C380040F09080206801F0C9FB10F4802F40F04C
:100C4800D480206801F0C2FB0028C0F242812068ED
:100C580001F0BCFB10F4006F0AD0D5F8083813F087
:100C6800010F40F050812268536903F40063536117
:100C7800206801F0ABFB10F4805F40F048812068E9
:100C880001F0A4FB10F4005F40F0A781206801F098
:100C98009DFB10F0080F40F0B881206801F096FB2A
:100CA80010F4801F40F0BA81206801F08FFB10F427
:100CB800001F40F0BD81206801F088FB10F0804FD4
:100CC80040F0C081206801F081FB10F0040F3FF470
:100CD8007BAF23685D6815F0040F40F0BC81226883
:100CE80053682B4353606FE747F6F07318EA030F16
:100CF80094D04FEAC90BABEB09034FEA830AA2442D
:100D08004FEA1818C8F30A02DAF80812284601F060
:100D1800AFFAC8F30A08DAF808324344CAF80832C6
:100D2800DAF814324344CAF8143277E7082204F593
:100D38007171284601F09CFAC8F30A184FEAC903F2
:100D4800A3EB09018A002244D2F814324344C2F8C2
:100D5800143263E7206801F03DFB8046B14617E096
:100D680007EB49130122C3F8082B49462046FFF731
:100D78007BFE1DE007EB49130822C3F8082B494600
:100D88002046FFF7F1FE16E009F101094FEA58087D
:100D9800B8F1000F3FF44EAF18F0010FF4D05FFA2E
:100DA80089F1206801F026FB824610F0010FD7D1A7
:100DB8001AF0080FDED11AF0100F04D007EB491310
:100DC8001022C3F8082B1AF0200F04D007EB4913A0
:100DD8002022C3F8082B1AF4005FD5D007EB49137B
:100DE8004FF40052C3F8082BCEE7206801F0FAFA56
:100DF8008046B1462AE05946204602F0D1FA1AF058
:100E0800080F04D007EB49130822C3F808291AF081
:100E1800100F04D007EB49131022C3F808291AF061
:100E2800400F04D007EB49134022C3F808291AF0F1
:100E3800020F04D007EB49130222C3F808291AF05D
:100E4800800F41D109F101094FEA5808B8F1000FA4
:100E58003FF4F7AE18F0010FF4D05FFA89FB59465A
:100E6800206801F0D0FA824610F0010FC7D009F0CF
:100E78000F03012101FA03F2D7F8343823EA0203F9
:100E8800C7F8343807EB4913C3F8081923698B42AC
:100E9800B1D14FEAC902A2EB090293002344596C6D
:100EA8009A6C0A449A64B9F1000FA4D1C9EBC9023B
:100EB800930023441B6D002B9DD104F57172012111
:100EC800206801F0F9FA96E749462046FFF7B0FC9A
:100ED800B8E7D5F8043823F00103C5F8043894F8C6
:100EE800F433012B08D0204602F09AFA226853699D
:100EF80003F000435361AAE6002184F8F413204666
:100F080000F031FAF2E7204602F072FAABE605F596
:100F18000068D8F8043023F00103C8F80430102121
:100F2800206800F02DFE20E007EB46134FF67F31D6
:100F3800C3F80819D3F8002922F40012C3F80029CD
:100F4800D3F8002942F00062C3F80029C3F8081B4F
:100F5800D3F8002B22F40012C3F8002BD3F8002B8F
:100F680042F00062C3F8002B01366368B342DBD855
:100F7800D8F81C3043F00113C8F81C30236BEBB1D0
:100F8800D8F8843043F00B03C8F88430D8F84430DC
:100F980043F00B03C8F84430D5F8003823F4FE6357
:100FA800C5F8003804F57172217C206801F084FAD4
:100FB8002268536903F48053536160E6D8F814300B
:100FC80043F4005343F02B03C8F81430D8F810301A
:100FD80043F00B03C8F81030DEE7206801F05CFA34
:100FE800206800F0CBFEE060256800F0D5FC227B8D
:100FF8000146284600F042FD204602F0E2F9226848
:10100800536903F40053536140E6204602F0D3F9D4
:101018002268536903F0080353613EE60021204625
:1010280002F00AFA2268536903F4801353613BE61D
:101038000021204602F0FAF92268536903F40013EC
:10104800536138E6204602F0FDF92268536903F03F
:101058008043536136E6204602F0FAF93FE690F8FD
:10106800BC33012B0DD010B50446012380F8BC33E6
:1010780080F83810006801F07DF9002084F8BC037E
:1010880010BD02207047F8B511F0800F28D101F08B
:101098000F06F500AF1BBC00274604F5FC7404449A
:1010A80004343E460644002586F8FD5101F00F0140
:1010B8002170A260E370627802B1E180022B1ED039
:1010C80090F8BC33012B1DD00546012380F8BC33B2
:1010D8002146006800F063FE002085F8BC03F8BDD7
:1010E80001F00F06F500AF1BBC0027463834044456
:1010F80004343E460644012586F83D50D6E70023D1
:101108002371DDE70220EAE738B511F0800F21D11D
:1011180001F00F05EA00541BA3001C4603F5FC73FD
:101128000344043325460544002285F8FD2101F0D7
:101138000F01197090F8BC23012A1AD00446012225
:1011480080F8BC231946006800F074FE002084F87B
:10115800BC0338BD01F00F04E200151BAB001D46AF
:101168003833034404332C460444012284F83D20D8
:10117800DDE70220EDE770B501F00F05EE00711B09
:101188008C0004F5FC740444211D761BB40004444F
:10119800C4F80822C4F810320023C4F8143284F8C2
:1011A800FD3184F8FC510369012B06D065B1DAB230
:1011B800006800F04FFF002070BDC5EBC506B40005
:1011C8000444C4F80C22F1E7DAB2006800F0A0FE8B
:1011D800F1E770B501F00F05EE00711B8C00383493
:1011E8000444211D761BB4000444A2642365002333
:1011F8006365012384F83D3084F83C500369012B72
:1012080006D05DB1DAB2006800F024FF002070BD9E
:10121800C5EBC506B4000444E264F2E7DAB200683C
:1012280000F076FEF2E738B501F00F0543689D42FD
:1012380036D811F0800F20D1CA00541AA3001C46DA
:1012480003F5FC730344043322460244002182F868
:10125800FD1101229A701D7090F8BC23012A21D03B
:101268000446012280F8BC231946006801F027F8DB
:101278007DB1002084F8BC0313E0EA00511B8B0009
:1012880019463833034404330144012281F83D20D0
:10129800DFE704F57172217C206801F00DF9E8E7B9
:1012A800012038BD0220FCE710B501F00F044368A7
:1012B8009C422CD811F0800F1DD1E3001A1B91001D
:1012C8000A4601F5FC71014404310244002382F806
:1012D800FD3100238B700C7090F8BC33012B18D0B3
:1012E8000446012380F8BC33006801F015F800209B
:1012F80084F8BC030CE0E3001A1B91000A4638315D
:10130800014404310244012382F83D30E1E7012021
:1013180010BD0220FCE730B40468606A29B10D46AC
:10132800A36A00EB134000230CE040EA0240A062ED
:1013380012E003F1400104EB8101496800EB114020
:101348000133DBB2691E8B42F3D340EA024005F158
:101358003F0104EB81014860002030BC70470368FE
:101368005962002070477047002800F0E98170B585
:1013780082B00446036813F0010F3BD0A74B9B686B
:1013880003F00C03042B2CD0A44B9B6803F00C0334
:10139800082B21D06368B3F5803F4FD0B3F5A02F59
:1013A80052D09E4B1A6822F480321A601A6822F4CE
:1013B80080221A606368002B50D0FFF7CBF80546EF
:1013C800964B1B6813F4003F14D1FFF7C3F8401B7A
:1013D8006428F5D90320B8E1904B5B6813F4800FBB
:1013E800D8D08E4B1B6813F4003F03D06368002BE2
:1013F80000F0A881236813F0020F55D0874B9B6833
:1014080013F00C0F3ED0854B9B6803F00C03082BA0
:1014180033D0E368002B68D0814B01221A60FFF7B4
:1014280099F805467D4B1B6813F0020F54D1FFF75E
:1014380091F8401B0228F5D9032086E1774A136802
:1014480043F480331360B5E7744B1A6842F4802282
:101458001A601A6842F480321A60ABE7FFF77AF82C
:1014680005466E4B1B6813F4003FC3D0FFF772F8B4
:10147800401B6428F5D9032067E1684B5B6813F4C7
:10148800800FC6D1654B1B6813F0020F04D0E368C8
:10149800012B01D0012058E1604A136823F0F803BA
:1014A800216943EAC1031360236813F0080F40D091
:1014B800636963B35B4B01221A60FFF74BF805467B
:1014C800564B5B6F13F0020F33D1FFF743F8401B05
:1014D8000228F5D9032038E1504A136823F0F803AD
:1014E800216943EAC1031360DEE74D4B00221A600D
:1014F800FFF730F80546494B1B6813F0020FD3D0AD
:10150800FFF728F8401B0228F5D903201DE1454BB9
:1015180000221A60FFF71EF80546404B5B6F13F078
:10152800020F06D0FFF716F8401B0228F5D9032052
:101538000BE1236813F0040F79D0384B1B6C13F0C0
:10154800805F33D100230193344B1A6C42F08052F0
:101558001A641B6C03F080530193019B0125324BE5
:101568001B6813F4807F23D0A368012B34D0052B8C
:1015780038D02A4B1A6F22F001021A671A6F22F02C
:1015880004021A67A368002B36D0FEF7E3FF06466D
:10159800224B1B6F13F0020F48D1FEF7DBFF801BB5
:1015A80041F288339842F3D90320CEE00025D6E7EC
:1015B8001D4A136843F480731360FEF7CBFF064699
:1015C800194B1B6813F4807FCED1FEF7C3FF801B35
:1015D8000228F5D90320B8E0104A136F43F001033D
:1015E8001367CFE70D4B1A6F42F004021A671A6FA0
:1015F80042F001021A67C5E7FEF7ACFF0646074B43
:101608001B6F13F0020F11D0FEF7A4FF801B41F2ED
:1016180088339842F3D9032097E000BF003802408E
:1016280000004742800E474200700040EDB9A369B0
:10163800002B00F08980484A926802F00C02082AC0
:1016480051D0022B17D0454B00221A60FEF782FFBB
:101658000446414B1B6813F0007F42D0FEF77AFF27
:10166800001B0228F5D903206FE03B4A136C23F0D6
:1016780080531364DBE7394B00221A60FEF76AFFD8
:101688000546354B1B6813F0007F06D0FEF762FF56
:10169800401B0228F5D9032057E0E369226A134367
:1016A800626A43EA8213A26A5208013A43EA024391
:1016B800E26A43EA0263284A5360284B01221A600F
:1016C800FEF748FF0446244B1B6813F0007F06D141
:1016D800FEF740FF001B0228F5D9032035E0002063
:1016E80033E0002031E0012B31D01B4B5B6803F461
:1016F8008001E269914201D0012026E003F03F0217
:10170800216A8A4201D001201FE0616A47F6C0724F
:101718001A40B2EB811F01D0012016E003F44031DA
:10172800A26A5208013AB1EB024F01D001200CE045
:1017380003F07063E26AB3EB026F0AD0012004E0A1
:1017480001207047012000E0002002B070BD012098
:10175800FBE70020F9E700BF00380240600047427D
:10176800324B9B6803F00C03042B5CD0082B01D090
:101778002F4870472DE9F04B2C4B5A6802F03F0276
:101788005B6813F4800F2BD0284B5B68C3F3881376
:101798001E4600275C010025E41A65EB0705A90130
:1017A80041EA9461A001001B61EB0501CB0043EA0B
:1017B8005073C400A01943EB07014B0243EAD0530E
:1017C8004402204619460023FEF7FAFC174B5B68D3
:1017D800C3F3014301335B00B0FBF3F0BDE8F08BCA
:1017E800124B5B68C3F388131E4600275C01002573
:1017F800E41A65EB0705A90141EA9461A001001B01
:1018080061EB0501CB0043EA5073C400A01943EB18
:1018180007018B0243EA90538402204619460023AD
:10182800FEF7CEFCD2E70348704700BF00380240FD
:101838000024F40000127A00002800F09E8070B5A1
:101848000446504B1B6803F007038B4209D2CBB206
:101858004C4A1370136803F007038B4201D0012030
:1018680070BD236813F0020F17D013F0040F04D0D3
:10187800454A936843F4E0539360236813F0080FD4
:1018880004D0414A936843F4604393603E4A9368A6
:1018980023F0F003A068034393600D46236813F018
:1018A800010F32D06368012B21D09A1E012A25D955
:1018B800354A126812F0020F61D033498A6822F063
:1018C800030213438B60FEF745FE06462E4B9B68CA
:1018D80003F00C036268B3EB820F16D0FEF73AFEF2
:1018E800801B41F288339842F0D90320B8E7264A92
:1018F800126812F4003FE0D10120B1E7224A1268D1
:1019080012F0007FD9D10120AAE71E4B1B6803F013
:101918000703AB4209D9EAB21A4B1A701B6803F0E5
:101928000703AB4201D001209AE7236813F0040FA4
:1019380006D0154A936823F4E053E1680B4393609B
:10194800236813F0080F07D00F4A936823F4604305
:10195800216943EAC1039360FFF702FF0A4B9B68C2
:10196800C3F30313094AD35CD840094B1860094BE9
:101978001868FEF7A5FD002072E7012070470120D6
:101988006EE700BF003C024000380240883700087C
:101998001001002004000020014B1868704700BFA8
:1019A8001001002082B000230193019B01330193B1
:1019B8000E4A934214D80369002BF6DA00230193E8
:1019C800036943F001030361019B01330193074A53
:1019D800934208D8036913F0010FF5D1002000E005
:1019E800032002B070470320FBE700BF400D03004F
:1019F80084B010B5044603A880E80E00089B012BAC
:101A08001FD1A36B23F48033A363E36823F4840317
:101A180023F04003E360E36823F44013E3600F9B83
:101A2800012B09D02046FFF7BDFF069B012B1BD0D9
:101A3800BDE8104004B07047E36843F48013E360E6
:101A4800F0E7E36843F04003E3602046FFF7AAFFAE
:101A58000C9B23B9A36B43F48033A363E5E7A36B23
:101A680023F48033A363E0E7A36843F00603A3608D
:101A7800A36843F02003A360DAE70000022A0AD033
:101A88000921C26822F47052C260C36843EA812304
:101A9800C360002070472A4B0B442A4A93423FD91F
:101AA800294B0B44294A93423CD9A1F57403A3F569
:101AB8001053274A934237D9A1F18373A3F5E7431B
:101AC80002F5C332A032934230D9224B0B44224A4A
:101AD80093422DD9214B0B4402F5922202F57872DC
:101AE800934227D91E4B0B4402F5C32202F52072FC
:101AF800934221D9A1F1B773A3F5585302F5B71250
:101B080002F55872934219D9164B0B4402F512226A
:101B180002F5F862934201D90621B2E70721B0E73E
:101B28000F21AEE70E21ACE70D21AAE70C21A8E7AB
:101B38000B21A6E70A21A4E70921A2E70821A0E7CB
:101B4800405327FFFF340C00401E1BFF3F420F008D
:101B58007F4F120060B6E5FE5FE3160000D3CEFEAD
:101B6800C05BB3FEE05459FE836843F00103836011
:101B780000207047836823F00103836000207047CA
:101B880082B000230193890141F020010161019B8A
:101B980001330193054A934205D8036913F0200FD6
:101BA800F5D1002000E0032002B07047400D03008B
:101BB80082B00023019310230361019B0133019339
:101BC800054A934205D8036913F0100FF5D1002098
:101BD80000E0032002B07047400D0300D0F8003841
:101BE8001943C0F8001800207047000084B02DE9A0
:101BF800F041044607A880E80E002546002306E0C9
:101C080003F1400204EB82020021516001330E2BE4
:101C1800F6D9119B23BBD4F8043843F00203C4F867
:101C28000438A36B43F40013A363A36B23F40023CA
:101C3800A363A36B23F48023A3630023C4F8003EAB
:101C480004F50066D4F80038C4F800380C9B012B62
:101C580014D1099B6BB900212046FFF7BFFF11E0A3
:101C6800A36B23F40013A363A36B43F40023A363C0
:101C7800E3E701212046FFF7B1FF03E003212046F7
:101C8800FFF7ACFF10212046FFF77AFF804608B126
:101C98004FF001082046FFF78BFF08B14FF001080D
:101CA800002333617361F3610AE0C3B94FF0006048
:101CB800C2F8000900220A614FF67F328A600133B8
:101CC8000799994210D905EB431202F51061D2F831
:101CD80000090028E9DB0020C2F80009EAE74FF014
:101CE8009040C2F80009E5E700230AE0BBB14FF0D5
:101CF8009047C2F8007B002202614FF67F32826073
:101D08000133994210D905EB431202F53060D2F83D
:101D1800007B002FEADB0027C2F8007BEBE74FF0DF
:101D28000067C2F8007BE6E7336923F48073336108
:101D38000023A3616FF0804363610A9B1BB9A36909
:101D480043F01003A361A2690B4B1343A3610D9BDE
:101D58001BB1A36943F00803A361119B012B04D0B5
:101D68004046BDE8F04104B07047A36943F08043A2
:101D780043F00403A361F3E700383C80D0F8083847
:101D880013F0060307D0022B07D0062B01D00F2033
:101D9800704702207047002070470220704770B4D7
:101DA8000B784A78012A22D0D0F81C2803F00F06B5
:101DB8000124B44042EA0442C0F81C2800EB431056
:101DC800D0F8003B13F4004F0ED1D0F8003B8A68DE
:101DD800C2F30A02C97842EA8142134343F08053AE
:101DE80043F40043C0F8003B002070BC7047D0F8B3
:101DF8001C4803F00F06B24092B22243C0F81C28D8
:101E080000EB4310D0F8002912F4004FECD1D0F8C1
:101E180000298C68C4F30A04C97844EA814444EA76
:101E28008353134343F0805343F40043C0F800390D
:101E3800DAE7000030B40B784A78012A24D000EBA6
:101E48004313D3F8002B002A50DBD0F83C580A780B
:101E580002F00F02012404FA02F225EA0242C0F855
:101E68003C28D0F81C28097801F00F018C4022EAA0
:101E78000444C0F81C48D3F8001B234A0A40C3F89E
:101E8800002B002030BC704700EB4313D3F8002927
:101E9800002A1EDBD0F83C580A7802F00F02012411
:101EA80004FA02F292B225EA0202C0F83C28D0F8FD
:101EB8001C28097801F00F018C40A4B222EA04041E
:101EC800C0F81C48D3F80019104A0A40C3F8002982
:101ED800D7E7D3F8002942F00062C3F80029D3F805
:101EE800002942F08042C3F80029D3E7D3F8002B39
:101EF80042F00062C3F8002BD3F8002B42F0804276
:101F0800C3F8002BA1E700BF0078F3EF007833ECAB
:101F180070B40B784C78012C26D000EB431000F5F8
:101F280030631C69E40CE4041C611C6924F0FF5450
:101F380024F4C0141C614C690CB18C684C611C6998
:101F480044F400241C611C698D68C5F312052C43F8
:101F58001C61012A65D0D0F8003B43F00443C0F867
:101F6800003B002070BC70474C696CBB00EB43140D
:101F7800D4F8105925F0FF5525F4C015C4F81059A8
:101F8800D4F8105945F40025C4F81059D4F810595C
:101F9800ED0CED04C4F81059012A33D000EB4313BB
:101FA800D3F8002942F00442C3F800294B69002BFA
:101FB800D7D0D0F83428097801F00F040121A140C6
:101FC8000A43C0F83428CCE700EB431404F5106446
:101FD8002569ED0CED042561256925F0FF5525F4EB
:101FE800C01525614E698D68AE4200D94D612569DD
:101FF80045F40025256125694E69C6F31206354367
:102008002561C9E70A691AB100EB4311C1F814291F
:1020180000EB4310D0F8002942F00442C0F8002930
:102028009FE7CA68002A96D05A6194E770B49DF871
:102038000C4064B903339D0807E000EB023303F555
:10204800805351F8046B1E600134AC42F5D3002074
:1020580070BC7047F0B583B00B784C78012C2BD04E
:1020680000EB431303F530642569ED0CED0425619D
:10207800256925F0FF5525F4C01525614D69002D0A
:1020880040F0C58025698E68C6F312063543256180
:10209800256945F400252561012A00F0CD80CA781C
:1020A800012A00F0CF80D3F8002B42F00442C3F895
:1020B800002B002003B0F0BD4C6984BB00EB431437
:1020C800D4F8105925F0FF5525F4C015C4F8105957
:1020D800D4F8105945F40025C4F81059D4F810590B
:1020E800ED0CED04C4F81059012A4CD000EB431351
:1020F800D3F8004944F00444C3F80049CC78012CD3
:102108006AD04B69002BD4D0D0F83428097801F074
:102118000F040121A1400A43C0F83428C9E700EBA5
:102128004314D4F81059ED0CED04C4F81059D4F840
:10213800105925F0FF5525F4C015C4F81059D4F8E6
:1021480010694D698F683D44013DB5FBF7F5474F70
:1021580007EAC5453543C4F81059D4F810594E69F3
:10216800C6F312063543C4F8105904F51064CD7847
:10217800012DB9D1256925F0C0452561256945F0AE
:1021880000552561B0E70A691AB100EB4314C4F899
:102198001429CA78012A08D000EB4313D3F8002980
:1021A80042F00442C3F8002983E7D0F8082812F463
:1021B800807F08D100EB4311D1F8002942F000528A
:1021C800C1F80029E8E700EB4311D1F8002942F0F3
:1021D8008052C1F80029DFE7D0F8084814F4807F5E
:1021E8000ED1D3F8004944F00054C3F8004914460E
:1021F8000B46C9681A789B8A0094FFF717FF58E7BF
:10220800D3F8004944F08054C3F80049EFE78E68DA
:102218003544013DB5FBF6F52669144F07EAC54775
:102228003E43266127698E68ADB206FB05F5C5F306
:1022380012053D4325612FE7CA68002A3FF42FAFF6
:1022480062612CE7D0F8082812F4807F06D1D3F811
:10225800002B42F00052C3F8002B24E7D3F8002BE0
:1022680042F08052C3F8002B1DE700BF0000F81FA2
:1022780070B483B00646950802F00302002305E017
:1022880006F58054246841F8044B0133AB42F7D378
:102298009AB100F580500368019308460024E3B220
:1022A800D900019BCB4000F8013B0134013A92B2BE
:1022B800002AF4D103B070BC70470846FAE70B78DF
:1022C8004A78012A14D000EB4310D0F8002B002ADA
:1022D80006DB2BB1D0F8003B23F08043C0F8003B6D
:1022E800D0F8003B43F40013C0F8003B00207047CF
:1022F80000EB4310D0F80029002A06DB2BB1D0F8F8
:10230800003923F08043C0F80039D0F8003943F48D
:102318000013C0F80039E9E70B784A78012A0ED093
:1023280000EB4310D0F8003B23F40013C0F8003B47
:10233800CB78023BDBB2012B15D90020704700EBAC
:102348004310D0F8003923F40013C0F80039CB78D3
:10235800023BDBB2012BF0D8D0F8003943F08053B0
:10236800C0F80039E9E7D0F8003B43F08053C0F8E3
:10237800003BE2E7D0F8003823F4FE63C0F80038E9
:10238800D0F80038090101F4FE610B43C0F80038A9
:1023980000207047D0F8003E23F00303C0F8003E49
:1023A800D0F8043823F00203C0F80438002070473E
:1023B800D0F8003E23F00303C0F8003ED0F80438FC
:1023C80043F00203C0F8043800207047426980696E
:1023D80010407047D0F8183800F50060C069184000
:1023E800000C7047D0F8183800F50060C069184034
:1023F80080B2704700EB4111D1F8082B00F500605E
:1024080040691040704710B4D0F81048D0F83438FC
:1024180001F00F02D340DB01DBB2234300EB411094
:1024280000F51060806818405DF8044B70474069FB
:1024380000F00100704738B50546C36823F0C04373
:10244800C360012913D029BBC36843F08043C3602C
:1024580000240120FEF784F801342846FFF7E7FF3F
:1024680008B1312CF5D9322C12D0002038BDC36800
:1024780043F00053C36000240120FEF771F80134D3
:102488002846FFF7D4FF0128EDD0312CF4D9EAE72C
:102498000120EBE70120E9E7D0F8003923F4FF63D6
:1024A80023F00703C0F80039D0F8043843F48073E8
:1024B800C0F804380020704710B4046C154B9C42D7
:1024C80003D9D0F8003B002B16DB0024C0F8104BD2
:1024D800D0F8104B44F40024C0F8104BD0F8104B3F
:1024E80044F01804C0F8104BD0F8104B44F0C04426
:1024F800C0F8104B012903D000205DF8044B704749
:10250800C0F8142BD0F8003B43F08023C0F8003B00
:10251800F2E700BF0A30544F222303800048704777
:102528000800002022230380004870472C00002068
:10253800222303800048704750000020D0F8BC32A6
:1025480000201873704700000A2303800048704772
:102558007400002010B582B0D0F8BC420023ADF85A
:102568000630002C00F084800B7813F0600325D02F
:10257800202B78D14B78023B092B1BD8DFE803F0DE
:1025880014091A1A1A1A1A1A0F058B7823600020D0
:102598006CE00122214600F0A0FD002066E04B8897
:1025A8001B0A6360002061E00122211D00F095FDF7
:1025B80000205BE000F056FA032057E04B780B2B25
:1025C8004DD8DFE803F006574C4C4C4C164C4C4C9D
:1025D8002F3F90F89C32DBB2032B06D102220DF17B
:1025E800060100F07AFD002040E000F03BFA0320ED
:1025F8003CE04B881B0A222B0AD0212B0ED1CA881B
:10260800092A28BF09221C4900F067FD00202DE097
:10261800CA884A2A28BF4A221849F5E700F022FA50
:10262800032023E090F89C32DBB2032B06D1012271
:1026380004F1080100F051FD002017E000F012FA43
:10264800032013E090F89C32DBB2032B03D18B7884
:10265800A36000200AE000F005FA032006E000F07D
:1026680001FA032002E000F0FDF9032002B010BDDA
:102678000320FBE70020F9E7CC00002080000020C1
:1026880010B50446812100F056FF00232387638795
:10269800D4F8BC0220B100F031FF0023C4F8BC32EA
:1026A800002010BD38B50446102000F023FF88B183
:1026B8000546C4F8BC02237C8BB90723638704232F
:1026C80003228121204600F02BFF012323870020CD
:1026D800287338BD0023C4F8BC320220F9E70A2366
:1026E8006387ECE798B108B503460020C3F8B80241
:1026F800C3F8C002C3F8CC0209B1C3F8B412184633
:10270800012380F89C32027000F0A8FE08BD032067
:10271800704710B582B00023ADF8063061B1C0F83B
:10272800B812CB6A53B104460DF106009847C4F8B5
:10273800CC02002002B010BD0320FBE70020F9E71F
:1027480008B500F0E5FE08BD08B5D0F8B83213B1F9
:102758001B68984708BD0320FCE708B5D0F8B832D5
:102768000BB15B689847002008BD38B5044600F2F5
:10277800AA25284600F062F90123C4F89432B4F877
:10278800B032C4F8983294F8AA1201F01F03012B52
:102798000DD03BB1022B0FD001F08001204600F094
:1027A800D2FE03E02946204600F009FB38BD294641
:1027B800204600F03FFBF9E72946204600F06EFB73
:1027C800F4E710B5044641BB1346D0F89422032A17
:1027D80001D0002010BDD0F85C11D0F860219142E2
:1027E80009D890F89C32DBB2032B0FD0204600F0BA
:1027F80091FC0020EEE7891AC0F85C118A4228BFD4
:102808000A46194600F07EFC0020E3E7D0F8B8320B
:102818001B69002BEAD09847E8E790F89C32DBB2B6
:10282800032B01D00020D5E7D0F8B8329B690BB153
:102838009847CFE70020CDE710B50446002949D1D5
:102848001346D0F89422022A05D094F8A032012B1E
:102858003CD0002010BDC269016A8A420ED88A4263
:1028680018D094F89C32DBB2032B27D08021204665
:1028780000F069FE204600F058FCE6E7521AC261F3
:10288800194600F037FC00231A461946204600F086
:102898007AFEDAE783699942E3D8D0F8982293421E
:1028A800DFD20022114600F025FC0021C4F898125E
:1028B8000B460A46204600F066FEC6E7D4F8B83252
:1028C800DB68002BD2D020469847CFE7002084F859
:1028D800A002BFE790F89C32DBB2032B01D00020A6
:1028E800B8E7D0F8B8325B690BB19847B2E7002077
:1028F800B0E7012380F89C320023C0F8943243608B
:10290800C0F8A432D0F8B832F3B170B50446D0F8A4
:10291800BC221AB15B680BB1002198474023002202
:102928001146204600F0FCFD0126A4F8646140250C
:10293800C4F860512B4600228021204600F0F0FDAB
:10294800A6842562002070BD032070470174002012
:10295800704790F89C32DBB280F89D32042380F8EF
:102968009C320020704790F89C32DBB2042B01D0D7
:102978000020704790F89D32DBB280F89C32F7E770
:10298800D0F8B82262B108B590F89C32DBB2032BBC
:1029980001D0002008BDD36923B198470020F9E78A
:1029A800032070470020F5E7D0F8B82262B108B5D7
:1029B80090F89C32DBB2032B01D0002008BD136ACB
:1029C80023B198470020F9E7032070470020F5E776
:1029D800D0F8B82262B108B590F89C32DBB2032B6C
:1029E80001D0002008BD536A23B198470020F9E7B9
:1029F800032070470020F5E70020704708B5012341
:102A080080F89C32D0F8B83213B15B6801799847E6
:102A1800002008BD002302E00133DBB20130027858
:102A2800002AF9D11846704708B54B88012B00D009
:102A380008BDC0F8A43200F06DFBF9E70B7803700D
:102A48004B7843708B78CA7843EA022343800B792A
:102A58004A7943EA022383808B79CA7943EA0223BD
:102A6800C380704710B50446802100F06CFD00213A
:102A7800204600F068FD10BD30B583B004460D4611
:102A88000023ADF806304A88130A013B062B00F2F2
:102A9800AB80DFE803F0041F33A9A98D9A00D0F8B2
:102AA800B4321B680DF10601007C9847EA88002AB9
:102AB80000F0A380BDF80630002B00F099809A4200
:102AC80028BF1A46ADF806200146204600F005FB4F
:102AD80003B030BD037C43B9D0F8B8329B6A0DF11E
:102AE8000600984702234370E0E7D0F8B832DB6A63
:102AF8000DF10600984702234370D7E7D2B2052AA2
:102B080052D8DFE802F003101D2A3744D0F8B43257
:102B18005B6823B10DF10601007C9847C6E729469A
:102B2800FFF7A0FFD4E7D0F8B4329B6823B10DF1CA
:102B38000601007C9847B9E72946FFF793FFC7E7E6
:102B4800D0F8B432DB6823B10DF10601007C984758
:102B5800ACE72946FFF786FFBAE7D0F8B4321B691D
:102B680023B10DF10601007C98479FE72946FFF73E
:102B780079FFADE7D0F8B4325B6923B10DF10601F6
:102B8800007C984792E72946FFF76CFFA0E7D0F84A
:102B9800B4329B6923B10DF10601007C984785E7A3
:102BA8002946FFF75FFF93E72946FFF75BFF8FE7AB
:102BB800037C33B9D0F8B8325B6B0DF10600984747
:102BC80074E72946FFF74EFF82E7037C43B9D0F844
:102BD800B8321B6B0DF1060098470723437065E771
:102BE8002946FFF73FFF73E72946FFF73BFF6FE7EB
:102BF80029462046FFF736FF6AE7204600F08AFAA2
:102C080066E738B504468B88FBB9CB88EBB94B88A7
:102C18007F2B1AD803F07F0590F89C32DBB2032B88
:102C28000CD080F89E52294600F09DFC204600F00A
:102C380071FA35B1022384F89C3209E0FFF712FFDC
:102C480006E0012384F89C3202E02046FFF70AFFE1
:102C580038BD000070B504460D4689782F4B1970B1
:102C6800012910D890F89C32DBB2022B11D0032B2B
:102C780025D02946FFF7F6FE284B19782046FFF79E
:102C88006CFD032603E02946FFF7ECFE03263046D9
:102C980070BD81B14160FFF757FD064620B1294656
:102CA8002046FFF7DFFEF2E7204600F033FA032361
:102CB80084F89C32EBE700F02DFA0026E7E7C9B16B
:102CC8004368994225D0D9B2FFF747FD134B1978CD
:102CD80061602046FFF738FD0646B0B12946204618
:102CE800FFF7C0FE21792046FFF737FD022384F85D
:102CF8009C32CCE7022380F89C324160FFF72DFD1F
:102D0800204600F007FA0026C1E7204600F002FA44
:102D1800BDE700F0FFF90026B9E700BF80010020F9
:102D280008B5CB88012B0DD190F89C3203F0FF0237
:102D38009BB1022A09D9032A0FD10122011D00F0F3
:102D4800CCF901E0FFF78EFE08BD0146002341F8EB
:102D5800083F012200F0C1F9F6E7FFF783FEF3E729
:102D680008B590F89C32013B022B12D8CB88022B75
:102D78000CD10123C360D0F8A4320BB10323C36084
:102D8800022200F10C0100F0A8F908BDFFF76AFE65
:102D9800FBE7FFF767FEF8E708B590F89C32013BC0
:102DA800022B09D84B88012B00D008BD0023C0F89E
:102DB800A43200F0AFF9F8E7FFF754FEF5E708B5DD
:102DC8000B7803F06003202B06D0402B04D043B1CE
:102DD800FFF748FE002003E0D0F8B8329B68984718
:102DE80008BD4B78092B21D8DFE803F0141C201804
:102DF80020090520100DFFF73FFE0020F0E7FFF740
:102E080000FF0020ECE7FFF725FFE9E7FFF788FF61
:102E18000020E5E7FFF7A4FF0020E1E7FFF704FE45
:102E28000020DDE7FFF7B8FF0020D9E7FFF71AFE1B
:102E38000020D5E770B505460C460B7803F0600313
:102E4800202B07D0402B05D023B1FFF70BFE00261F
:102E5800304670BD95F89C32013B022B18D8237977
:102E6800012B0FD8D5F8B8329B68214628469847D9
:102E78000646E388002BEBD10028E9D1284600F06C
:102E880049F9E5E721462846FFF7ECFD0026DFE78C
:102E980021462846FFF7E6FD0026D9E738B505465E
:102EA8000C468A880B7803F06003202B08D0D1B237
:102EB800402B05D05BB12146FFF7D4FD002005E08B
:102EC800D5F8B8329B6821462846984738BD6378BC
:102ED800012B30D0002B5FD0032B40F0DB8090F823
:102EE8009C32DBB2022B06D0032B15D02146FFF70C
:102EF800B9FD0020EAE709B1802905D12146284615
:102F0800FFF7B0FD0020E1E700F01DFB8021284617
:102F180000F019FB0020D9E7638823B919B180298B
:102F280001D0E38823B1284600F0F4F80020CDE76B
:102F380000F009FBF7E790F89C32DBB2022B06D0D1
:102F4800032B15D02146FFF78DFD0020BEE709B100
:102F5800802905D121462846FFF784FD0020B5E7E2
:102F680000F0F1FA8021284600F0EDFA0020ADE7E4
:102F78006388002B40F0938011F07F0F09D1284619
:102F880000F0C8F8D5F8B8329B682146284698471B
:102F98009CE700F0E0FAF2E790F89C32DBB2022BF3
:102FA80006D0032B2AD02146FFF75CFD00208DE7D1
:102FB80009B1802913D112F0800F15D101F07F01DA
:102FC80001EB81018B0003F5A87129440431002429
:102FD8000C600222284600F080F8204676E7214659
:102FE800FFF740FD002071E701F07F0101EB81014F
:102FF8008B0003F1100129440431E8E752B2002A9A
:103008001FDB01F00F0303EB830398002844B0F89B
:1030180064312BB3002A29DB01F07F0202EB820224
:10302800930003F5A8742C44043409B1802927D1EE
:103038000023236002222146284600F04EF8002093
:1030480044E701F00F0303EB830398002844838CC3
:10305800002BDFD121462846FFF704FD002035E785
:1030680021462846FFF7FEFC00202FE701F07F02EB
:1030780002EB8202930003F110042C440434D4E7D9
:10308800284600F01FFA10B101232360D2E700237D
:103098002360CFE72146FFF7E5FC002016E7002074
:1030A80014E7C8B170B50D4616460446FFF7B2FCE2
:1030B800013040003080287003236B70022307E042
:1030C800EA5401345A1CD2B20021A9540233DBB2AB
:1030D8002278002AF4D170BD704710B51346022239
:1030E800C0F894228361C3610A46002100F043FAC4
:1030F800002010BD08B513460A46002100F03BFA2F
:10310800002008BD08B513460A46002100F03BFA26
:10311800002008BD08B50422C0F8942200231A46EE
:10312800194600F028FA002008BD08B50522C0F8A5
:10313800942200231A46194600F025FA002008BDFB
:1031480082B0002100910B4B1A6B42F080021A6387
:103158001A6B02F080020092009A01911A6B42F0F9
:1031680001021A631B6B03F001030193019B02B078
:10317800704700BF0038024072B6FEE700B595B050
:103188003022002108A800F0E7FA002303930493F3
:103198000593069307930193204A116C41F08051DF
:1031A8001164126C02F080520192019A02931C4B36
:1031B8001A6842F480421A601B6803F48043029341
:1031C800029B012308934FF48033099302220E9245
:1031D8004FF480030F9304231093602111911292EE
:1031E800139308A8FEF7C0F898B90F230393022396
:1031F8000493002305934FF4A05306934FF4805390
:103208000793032103A8FEF717FB20B915B05DF853
:1032180004FBFFF7B1FFFFF7AFFF00BF0038024024
:103228000070004008B5FDF76FF9FFF7A7FFFFF73B
:1032380087FF00F03FF8FEE700B583B0002100915A
:103248000C4B5A6C42F480425A645A6C02F4804225
:103258000092009A01911A6C42F080521A641B6C19
:1032680003F080530193019B0720FDF78DF903B00C
:103278005DF804FB00380240FEE7FEE7FEE7FEE7E4
:10328800FEE770477047704708B5FDF757F908BD66
:1032980008B50248FDF790FC08BD00BF6C0400208B
:1032A800034AD2F8883043F47003C2F88830704774
:1032B80000ED00E008B500220B490C48FFF712FAB0
:1032C80048B90B490948FFF724FA38B90748FFF706
:1032D80037FA30B908BDFFF74FFFF2E7FFF74CFFA9
:1032E800F4E7FFF749FFF5E7480100209C010020BB
:1032F800D800002030B589B00023039304930593C8
:10330800069307930368B3F1A04F01D009B030BD0D
:1033180000250195164C236B43F001032363236BAF
:1033280003F001030193019B4FF4C053039302235D
:103338000493032306930A23079303A90D48FDF773
:103348008DF9636B43F0800363630295636C43F408
:1033580080436364636C03F480430293029B2A46B0
:1033680029464320FDF722F94320FDF753F9CDE71D
:10337800003802400000024008B500F57171D0F82D
:103388000404FFF7F2F908BD08B5C1EBC1029300C8
:103398000344D3F80822D0F80404FFF712FA08BD52
:1033A80008B5C1EBC102930003449A6CD0F8040439
:1033B800FFF742FA08BD08B5D0F80404FFF7E0FAB1
:1033C80008BD10B50446C3682BB1022B0DD0FFF71A
:1033D800D3FE012100E00021D4F80404FFF7B6FA77
:1033E800D4F80404FFF785FA10BD0121F4E70000C2
:1033F80010B50446D0F80404FFF7ABFA2268D2F8F7
:10340800003E43F00103C2F8003E236A23B1034A99
:10341800136943F00603136110BD00BF00ED00E01F
:1034280008B5D0F80404FFF79EFA08BD08B5D0F82F
:103438000404FFF7CDFA08BD08B5D0F80404FFF777
:10344800B3FA08BD08B5D0F80404FFF7D5FA08BDEB
:1034580008B5D0F80404FFF7D1FA08BD03780BB11A
:103468000020704710B503461548C0F80434C3F867
:10347800C4024FF0A0430360042343600222C260E9
:10348800002303618261C36103624362C362036311
:10349800FDF738FA80B90A4C80212046FDF75FFF16
:1034A800402200212046FDF736FF802201212046D8
:1034B800FDF731FF002010BDFFF75EFEEBE700BF10
:1034C8006C040020D0F8C43211F0800F08D101F04C
:1034D8007F01C1EBC1018A00134493F8FE017047D4
:1034E80001F07F01C1EBC1018A00134493F83E004B
:1034F800704700000048704784010020704718B1E9
:10350800022803D00320704700207047012070472D
:1035180008B5D0F8C402FDF786FAFFF7F0FF08BD3A
:1035280010B51C4613462246D0F8C402FDF7ABFD81
:10353800FFF7E5FF10BD08B5D0F8C402FDF7E4FDBC
:10354800FFF7DDFF08BD08B5D0F8C402FDF76BFE34
:10355800FFF7D5FF08BD08B5D0F8C402FDF7A4FEF3
:10356800FFF7CDFF08BD08B5D0F8C402FDF777FD19
:10357800FFF7C5FF08BD08B5D0F8C402FDF729FE5E
:10358800FFF7BDFF08BD08B5D0F8C402FDF7F3FD8D
:10359800FFF7B5FF08BD000012230B8000487047F5
:1035A8001401002004230B800048704728010020E4
:1035B8000023934216D230B40BE0373401F813409D
:1035C80000015C00013400250D550133DBB2934244
:1035D80006D2040F092CF0D8303401F81340EFE775
:1035E80030BC70477047000038B50B4B186804337F
:1035F8001C6804331B68C01800D138BD074D082269
:1036080005F11A01FFF7D4FF042205F12A0120462B
:10361800FFF7CEFFF1E700BF107AFF1F140100206B
:1036280008B51A230B80FFF7DFFF014808BD00BF6C
:103638002C01002008B50A4628B105490548FFF7BE
:1036480030FD034808BD02490248FFF72AFDF8E7A4
:1036580074080020A037000810B5044C0A4621461B
:103668000348FFF71EFD204610BD00BF7408002068
:10367800B837000808B50A4628B105490548FFF7D4
:1036880010FD034808BD02490248FFF70AFDF8E7A4
:1036980074080020CC37000808B50A4628B1054947
:1036A8000548FFF7FEFC034808BD02490248FFF73A
:1036B800F8FCF8E774080020D8370008DFF834D0A1
:1036C8000D480E490E4A002302E0D458C450043372
:1036D800C4188C42F9D30B4A0B4C002301E0136049
:1036E8000432A242FBD3FFF7DBFD00F011F8FFF72D
:1036F80099FD7047000002200000002064010020AE
:10370800F837000864010020740A0020FEE7000072
:1037180070B50D4E0D4CA41BA4100025A54209D16F
:103728000B4E0C4C00F020F8A41BA4100025A54259
:1037380005D170BD56F8253098470135EEE756F8A3
:10374800253098470135F2E7F0370008F0370008D0
:10375800F0370008F437000802440346934200D1CA
:10376800704703F8011BF9E7F8B500BFF8BC08BCBF
:103778009E467047F8B500BFF8BC08BC9E46704727
:103788000000000000000000010203040607080909
:10379800000000000102030453544D3332204875E1
:1037A8006D616E20696E7465726661636500000004
:1037B80053544D6963726F656C656374726F6E699B
:1037C8006373000048494420436F6E6669670000D0
:1037D80048494420496E746572666163650000005B
:0837E80010CAFF7F0100000080
:0437F000AD0100081F
:0437F400890100083F
:1037F800010000001000000009022200010100E0A1
:10380800320904000001030102000921110100012D
:10381800224A000705810304000A00000902220069
:10382800010100E03209040000010301020009213E
:1038380011010001224A0007058103040007000066
:1038480009022200010100E032090400000103011D
:103858000200092111010001224A00070581030421
:10386800000A00000A0600020000004001000000F3
:1038780005010902A1010901A1000509190129038E
:1038880015002501950375018102950175058101D2
:1038980005010930093109381581257F7508950317
:1038A8008106C0093C05FF09011500250175019530
:1038B80002B12275069501B101C00000092111016C
:1038C8000001224A00000000AD26000889260008F1
:1038D8005D250008000000000000000045250008E4
:1038E80000000000000000000000000000000000D0
:1038F8002D25000821250008392500085125000834
:103908000024F400120100020000004083042B5739
:103918000002010203010000040309041A03000065
:10392800000000000000000000000000000000008F
:103938000000000000000000A1350008AD350008B7
:10394800613600083D360008293600087D36000833
:04395800A13600088C
:04000005080036C5F4
:00000001FF
